{
  "_format": "hh-sol-artifact-1",
  "contractName": "TipJar",
  "sourceName": "src/contracts/TipJar.sol",
  "abi": [
    {
      "inputs": [],
      "stateMutability": "nonpayable",
      "type": "constructor"
    },
    {
      "inputs": [],
      "name": "getAllTips",
      "outputs": [
        {
          "components": [
            {
              "internalType": "address",
              "name": "sender",
              "type": "address"
            },
            {
              "internalType": "string",
              "name": "message",
              "type": "string"
            },
            {
              "internalType": "string",
              "name": "name",
              "type": "string"
            },
            {
              "internalType": "uint256",
              "name": "timestamp",
              "type": "uint256"
            },
            {
              "internalType": "uint256",
              "name": "amount",
              "type": "uint256"
            }
          ],
          "internalType": "struct TipJar.Tip[]",
          "name": "",
          "type": "tuple[]"
        }
      ],
      "stateMutability": "view",
      "type": "function"
    },
    {
      "inputs": [],
      "name": "getTotalTips",
      "outputs": [
        {
          "internalType": "uint256",
          "name": "",
          "type": "uint256"
        }
      ],
      "stateMutability": "view",
      "type": "function"
    },
    {
      "inputs": [
        {
          "internalType": "string",
          "name": "_message",
          "type": "string"
        },
        {
          "internalType": "string",
          "name": "_name",
          "type": "string"
        }
      ],
      "name": "sendTip",
      "outputs": [],
      "stateMutability": "payable",
      "type": "function"
    },
    {
      "inputs": [],
      "name": "totalTips",
      "outputs": [
        {
          "internalType": "uint256",
          "name": "",
          "type": "uint256"
        }
      ],
      "stateMutability": "view",
      "type": "function"
    }
  ],
  "bytecode": "0x608060405234801561001057600080fd5b5033600160006101000a81548173ffffffffffffffffffffffffffffffffffffffff021916908373ffffffffffffffffffffffffffffffffffffffff160217905550610df0806100616000396000f3fe60806040526004361061003f5760003560e01c8063399ddbbd1461004457806354cafb041461006f57806355f203b51461008b578063990de8ae146100b6575b600080fd5b34801561005057600080fd5b506100596100e1565b604051610066919061073d565b60405180910390f35b610089600480360381019061008491906108a8565b6102ce565b005b34801561009757600080fd5b506100a0610505565b6040516100ad919061092f565b60405180910390f35b3480156100c257600080fd5b506100cb61050e565b6040516100d8919061092f565b60405180910390f35b60606002805480602002602001604051908101604052809291908181526020016000905b828210156102c557838290600052602060002090600502016040518060a00160405290816000820160009054906101000a900473ffffffffffffffffffffffffffffffffffffffff1673ffffffffffffffffffffffffffffffffffffffff1673ffffffffffffffffffffffffffffffffffffffff16815260200160018201805461018e90610979565b80601f01602080910402602001604051908101604052809291908181526020018280546101ba90610979565b80156102075780601f106101dc57610100808354040283529160200191610207565b820191906000526020600020905b8154815290600101906020018083116101ea57829003601f168201915b5050505050815260200160028201805461022090610979565b80601f016020809104026020016040519081016040528092919081815260200182805461024c90610979565b80156102995780601f1061026e57610100808354040283529160200191610299565b820191906000526020600020905b81548152906001019060200180831161027c57829003601f168201915b505050505081526020016003820154815260200160048201548152505081526020019060010190610105565b50505050905090565b343373ffffffffffffffffffffffffffffffffffffffff16311015610328576040517f08c379a000000000000000000000000000000000000000000000000000000000815260040161031f90610a07565b60405180910390fd5b6000600160009054906101000a900473ffffffffffffffffffffffffffffffffffffffff1673ffffffffffffffffffffffffffffffffffffffff163460405161037090610a58565b60006040518083038185875af1925050503d80600081146103ad576040519150601f19603f3d011682016040523d82523d6000602084013e6103b2565b606091505b50509050806103f6576040517f08c379a00000000000000000000000000000000000000000000000000000000081526004016103ed90610ab9565b60405180910390fd5b60016000808282546104089190610b08565b9250508190555060026040518060a001604052803373ffffffffffffffffffffffffffffffffffffffff16815260200185815260200184815260200142815260200134815250908060018154018082558091505060019003906000526020600020906005020160009091909190915060008201518160000160006101000a81548173ffffffffffffffffffffffffffffffffffffffff021916908373ffffffffffffffffffffffffffffffffffffffff16021790555060208201518160010190816104d39190610ce8565b5060408201518160020190816104e99190610ce8565b5060608201518160030155608082015181600401555050505050565b60008054905090565b60005481565b600081519050919050565b600082825260208201905092915050565b6000819050602082019050919050565b600073ffffffffffffffffffffffffffffffffffffffff82169050919050565b600061056b82610540565b9050919050565b61057b81610560565b82525050565b600081519050919050565b600082825260208201905092915050565b60005b838110156105bb5780820151818401526020810190506105a0565b60008484015250505050565b6000601f19601f8301169050919050565b60006105e382610581565b6105ed818561058c565b93506105fd81856020860161059d565b610606816105c7565b840191505092915050565b6000819050919050565b61062481610611565b82525050565b600060a0830160008301516106426000860182610572565b506020830151848203602086015261065a82826105d8565b9150506040830151848203604086015261067482826105d8565b9150506060830151610689606086018261061b565b50608083015161069c608086018261061b565b508091505092915050565b60006106b3838361062a565b905092915050565b6000602082019050919050565b60006106d382610514565b6106dd818561051f565b9350836020820285016106ef85610530565b8060005b8581101561072b578484038952815161070c85826106a7565b9450610717836106bb565b925060208a019950506001810190506106f3565b50829750879550505050505092915050565b6000602082019050818103600083015261075781846106c8565b905092915050565b6000604051905090565b600080fd5b600080fd5b600080fd5b600080fd5b7f4e487b7100000000000000000000000000000000000000000000000000000000600052604160045260246000fd5b6107b5826105c7565b810181811067ffffffffffffffff821117156107d4576107d361077d565b5b80604052505050565b60006107e761075f565b90506107f382826107ac565b919050565b600067ffffffffffffffff8211156108135761081261077d565b5b61081c826105c7565b9050602081019050919050565b82818337600083830152505050565b600061084b610846846107f8565b6107dd565b90508281526020810184848401111561086757610866610778565b5b610872848285610829565b509392505050565b600082601f83011261088f5761088e610773565b5b813561089f848260208601610838565b91505092915050565b600080604083850312156108bf576108be610769565b5b600083013567ffffffffffffffff8111156108dd576108dc61076e565b5b6108e98582860161087a565b925050602083013567ffffffffffffffff81111561090a5761090961076e565b5b6109168582860161087a565b9150509250929050565b61092981610611565b82525050565b60006020820190506109446000830184610920565b92915050565b7f4e487b7100000000000000000000000000000000000000000000000000000000600052602260045260246000fd5b6000600282049050600182168061099157607f821691505b6020821081036109a4576109a361094a565b5b50919050565b600082825260208201905092915050565b7f596f7520646f206e6f74206861766520656e6f7567682066756e647300000000600082015250565b60006109f1601c836109aa565b91506109fc826109bb565b602082019050919050565b60006020820190508181036000830152610a20816109e4565b9050919050565b600081905092915050565b50565b6000610a42600083610a27565b9150610a4d82610a32565b600082019050919050565b6000610a6382610a35565b9150819050919050565b7f5472616e73666572206661696c65640000000000000000000000000000000000600082015250565b6000610aa3600f836109aa565b9150610aae82610a6d565b602082019050919050565b60006020820190508181036000830152610ad281610a96565b9050919050565b7f4e487b7100000000000000000000000000000000000000000000000000000000600052601160045260246000fd5b6000610b1382610611565b9150610b1e83610611565b9250828201905080821115610b3657610b35610ad9565b5b92915050565b60008190508160005260206000209050919050565b60006020601f8301049050919050565b600082821b905092915050565b600060088302610b9e7fffffffffffffffffffffffffffffffffffffffffffffffffffffffffffffffff82610b61565b610ba88683610b61565b95508019841693508086168417925050509392505050565b6000819050919050565b6000610be5610be0610bdb84610611565b610bc0565b610611565b9050919050565b6000819050919050565b610bff83610bca565b610c13610c0b82610bec565b848454610b6e565b825550505050565b600090565b610c28610c1b565b610c33818484610bf6565b505050565b5b81811015610c5757610c4c600082610c20565b600181019050610c39565b5050565b601f821115610c9c57610c6d81610b3c565b610c7684610b51565b81016020851015610c85578190505b610c99610c9185610b51565b830182610c38565b50505b505050565b600082821c905092915050565b6000610cbf60001984600802610ca1565b1980831691505092915050565b6000610cd88383610cae565b9150826002028217905092915050565b610cf182610581565b67ffffffffffffffff811115610d0a57610d0961077d565b5b610d148254610979565b610d1f828285610c5b565b600060209050601f831160018114610d525760008415610d40578287015190505b610d4a8582610ccc565b865550610db2565b601f198416610d6086610b3c565b60005b82811015610d8857848901518255600182019150602085019450602081019050610d63565b86831015610da55784890151610da1601f891682610cae565b8355505b6001600288020188555050505b50505050505056fea2646970667358221220bd06cc0fb50739d4d2508dd5691abf8a6f8aaec43e0daf34ec64b604eab81d1364736f6c63430008120033",
  "linkReferences": {},
  "deployedLinkReferences": {}
}